:1000000000800020830500001B0600001B06000086
:100010001B0600001B0600001B0600001B0600005C
:100020001B0600001B0600001B0600001B0600004C
:100030001B0600001B0600001B0600005B070000FB
:100040000D0C0000650C00001B0600001B060000E4
:100050001B0600001B0600001B0600001B0600001C
:100060001B0600001B0600001B0600001B0600000C
:100070001B0600001B0600001B0600001B060000FC
:100080001B0600001B0600001B0600001B060000EC
:100090001B0600001B0600001B0600001B060000DC
:1000A0001B0600001B0600001B0600001B060000CC
:1000B0001B0600001B0600001B0600001B060000BC
:1005000080B582B000AF40F6E042C0F2000240F693
:10051000E043C0F20003D31A9B103B6000237B60D2
:100520007A683B689A420BD240F6E043C0F200037F
:100530007A689200D35898477B6801337B60EFE775
:1005400040F6E442C0F2000240F6E043C0F200038D
:10055000D31A9B103B6000237B607A683B689A4209
:100560000BD240F6E043C0F200037A689200D35801
:1005700098477B6801337B60EFE7C046BD4602B019
:1005800080BD80B584B000AF40F6E653C0F20003F2
:10059000FB6040F20003C2F20003BB6040F20002C5
:1005A000C2F2000240F20003C2F20003D31A7B60E1
:1005B0007B685A1E7A605A1E9341DBB24BB1FB68CE
:1005C0005A1CFA601978BB685A1CBA600A1C1A7067
:1005D000EEE740F20003C2F20003BB6040F21C12DF
:1005E000C2F2000240F20003C2F20003D31A7B60A1
:1005F0007B685A1E7A605A1E9341DBB22BB1BB68EE
:100600005A1CBA6000221A70F2E7FFF779FF00F077
:1006100007F8C046BD4604B080BD80B500AFFEE718
:1006200080B582B000AF00237B608023C4F2040356
:1006300001225A8040F60353C4F2040300221A70C8
:1006400040F60353C4F2040340221A7040F600132C
:10065000C4F204031A6840F60013C4F204034021F4
:100660008A431A6000F08AF800F05FF840F2000355
:10067000C2F20003180000F0D9F862B640F2E83088
:1006800000F043F840F6E442C0F2000240F20003FA
:10069000C2F200031100180000F042FA7B685A1CF5
:1006A0007A601A0040F20003C2F200031100180041
:1006B00000F0F2F940F6F442C0F2000240F200030A
:1006C000C2F200031100180000F02AFA40F2000301
:1006D000C2F20003180000F08EFA03005A1E934184
:1006E000DBB2002BCAD040F20003C2F200031800B4
:1006F00000F05DF903001A0040F20003C2F20003AB
:100700001100180000F010F9B8E780B582B000AF12
:1007100078607B685A1E7A605A1E9341DBB203B13F
:10072000F7E7C046BD4602B080BD80B500AF4EF2CF
:100730001003CEF2000347F6FF425A604EF2100358
:10074000CEF2000364229A604EF21003CEF2000350
:1007500007221A60C046BD4680BD80B500AF802329
:10076000C4F204031B889AB28023C4F2040301215B
:100770004A4092B21A80C046BD4680BD80B500AFE7
:100780004EF2FE33C4F20103164A1A804EF22003E1
:10079000C4F2010300221A604EF23603C4F20103D0
:1007A0001B78DAB24EF23603C4F2010301218A4308
:1007B000D2B21A704EF23C03C4F201031B78DBB2D2
:1007C0001A00012313405A425341DBB203B1F1E74F
:1007D0004EF22603C4F2010300221A70C046BD4641
:1007E00080BDC04601A5FFFF80B582B000AF786034
:1007F00039607B68012B0BD13B684FF6FF72934247
:1008000006D140F20003C2F20003180000F0E2FA41
:10081000C046BD4602B080BD80B500AF4FF6FF7147
:100820000120FFF7E1FFBD4680BDC04680B584B022
:1008300000AF786042F28053FB6040F21813C2F2BE
:1008400000037A681A6072B67B689422002199507E
:1008500000237A68902153507A688C2153507B682A
:1008600000229A6000227B685A607B681A6040F61A
:100870000353C4F2040300221A7040F60353C4F277
:10088000040340221A7040F62013C4F2040300222D
:10089000C0F201421A6040F61C13C4F204030022A5
:1008A000C0F201421A6047F20003C4F204031A685E
:1008B00047F20003C4F20403520052081A600023F6
:1008C000C4F2070300229A700023C4F20703002237
:1008D0001A700023C4F2070310229A710023C4F295
:1008E000070367225A700023C4F2070370229A702C
:1008F00046F20033C4F2000371221A6046F2043358
:10090000C4F2000372221A604EF20013CEF200030A
:100910001A684EF20013CEF2000303210A431A6054
:10092000C046BD4604B080BD80B584B000AF7860DD
:100930000A00FB1C1A7048F2A063C0F20103FB60BE
:100940007B689B687F2B05D9FB685A1EFA600BB148
:10095000012300E0002303B1F2E70023C4F2070300
:100960009B78DBB25BB2DB43DBB2DB09DBB29BB172
:100970000023C4F207039B78DAB20023C4F2070312
:10098000802149420A43D2B29A700023C4F207037D
:10099000FA1C1278DA7006E07968FB1C1A787B681A
:1009A000180000F0D4F8C046BD4604B080BD80B544
:1009B00082B000AF78607B688C331A007B681100CE
:1009C000180000F0EDF803001800BD4602B080BD2D
:1009D00080B586B000AF786039600A237B6108215A
:1009E0007B180022DA723B68002B06DA7B182D2276
:1009F0001A703B685B423B6003E00823FB182B2224
:100A00001A707B69002B1ADD3A680A2392FBF3F116
:100A10000B009B005B185B00D31ADBB23033D9B2FA
:100A20000823FA187B69D3180A1C1A703B680A223B
:100A300093FBF2F33B607B69013B7B61E1E70823B9
:100A4000FA187B681100180000F06AF8C046BD462D
:100A500006B080BD80B582B000AF78600A00FB1C94
:100A60001A70FB1C1B78092B04D8FB1C1B78303335
:100A7000DBB20DE0FB1C1B78092B08D9FB1C1B7893
:100A80000F2B04D8FB1C1B783733DBB200E0232389
:100A90001800BD4602B080BD80B586B000AF78605A
:100AA000396007237B610823FB1800221A727B69D7
:100AB000002B18DB3B68DBB20F221340DAB27B68F5
:100AC00011001800FFF7C6FF030019000823FA18E9
:100AD0007B69D3180A1C1A703B681B093B607B6951
:100AE000013B7B61E3E70823FA187B6811001800DB
:100AF00000F016F8C046BD4606B080BD80B582B095
:100B000000AF78600A00FB1C1A70FB1C1A787B6827
:100B100011001800FFF708FFC046BD4602B080BDB7
:100B200080B582B000AF786039603B681B7853B104
:100B30003B681A787B6811001800FFF7F5FE3B68E8
:100B400001333B60F1E7C046BD4602B080BD80B5D1
:100B500084B000AFF860B960FB1D1A70BB689A687A
:100B60007F21002391425B41DBB2ABB172B6BB681F
:100B70009B685A1CBB689A60FB1D1978BB681B6890
:100B8000BA68D3180A1C1A73BB681B6801337F222A
:100B90001A40BB681A6062B6C046BD4604B080BD4C
:100BA00080B584B000AF786039600F217B180022D7
:100BB0001A703B689B685A1E9341DBB2A3B172B6B0
:100BC0003B689B685A1E3B689A603B685A687B1872
:100BD00039688A18127B1A703B685B6801337F2280
:100BE0001A403B685A6062B60F23FB181B78180046
:100BF000BD4604B080BD80B582B000AF78607B6830
:100C000094229B581800BD4602B080BD80B582B0CA
:100C100000AF46F20033C4F200031A6846F2003314
:100C2000C4F200030E490A401A600023C4F207030D
:100C3000FA1D5B79137040F21813C2F200031868B2
:100C400040F21813C2F200031B688C331900FB1D1D
:100C50001B781A00FFF77BFFC046BD4602B080BD7F
:100C6000FFFFFEFFB0B500AF46F20433C4F200034D
:100C70001A6846F20433C4F2000318490A401A60A5
:100C800040F21813C2F200031B689B685A1E93417E
:100C9000DBB29BB140F21813C2F200031A6840F2B3
:100CA0001813C2F200031B680024C4F207041900E1
:100CB0001000FFF775FF0300E3700BE00023C4F2A0
:100CC00007039B78DAB20023C4F207037F210A40AE
:100CD000D2B29A70C046BD46B0BDC046FFFFFEFF0F
:100CE000190800005468652076616C7565203D2008
:100CF000000000000D0A004743433A2028474E55A4
:100D00002041726D20456D62656464656420546F96
:100D10006F6C636861696E2031302D323032302D56
:100D200071342D6D616A6F72292031302E322E316F
:100D3000203230323031313033202872656C6561B9
:100D400073652900412F000000616561626900013F
:100D50002500000005382D4D2E4241534500061058
:100D6000074D090312041401150117031801190195
:100D70001A011E06412F00000061656162690001D1
:100D80002500000005382D4D2E4241534500061028
:100D9000074D090312041401150117031801190165
:100DA0001A011E06412F00000061656162690001A1
:100DB0002500000005382D4D2E42415345000610F8
:100DC000074D090312041401150117031801190135
:040DD0001A011E06E0
:100DD40080B582B000AF78607B681800BD4602B071
:020DE40080BDD0
:00000001FF
