:1000000000800020830500001B0600001B06000086
:100010001B0600001B0600001B0600001B0600005C
:100020001B0600001B0600001B0600001B0600004C
:100030001B0600001B0600001B0600000108000054
:10004000F50E00004D0F00001B0600001B0600000F
:100050001B0600001B0600001B0600001B0600001C
:100060001B0600001B0600001B0600001B0600000C
:100070001B0600001B0600001B0600001B060000FC
:100080001B0600001B0600001B0600001B060000EC
:100090001B0600001B0600001B0600001B060000DC
:1000A0001B0600001B0600001B0600001B060000CC
:1000B0001B0600001B0600001B0600001B060000BC
:0800C000EC0F0000010000003C
:1005000080B582B000AF41F21442C0F2000241F265
:100510001443C0F20003D31A9B103B6000237B609E
:100520007A683B689A420BD241F21443C0F200034E
:100530007A689200D35898477B6801337B60EFE775
:1005400041F21842C0F2000241F21443C0F200032B
:10055000D31A9B103B6000237B607A683B689A4209
:100560000BD241F21443C0F200037A689200D358D0
:1005700098477B6801337B60EFE7C046BD4602B019
:1005800080BD80B584B000AF41F25263C0F2000379
:10059000FB6040F20003C2F20003BB6040F20002C5
:1005A000C2F2000240F20003C2F20003D31A7B60E1
:1005B0007B685A1E7A605A1E9341DBB24BB1FB68CE
:1005C0005A1CFA601978BB685A1CBA600A1C1A7067
:1005D000EEE740F20003C2F20003BB6040F22012DB
:1005E000C2F2000240F20003C2F20003D31A7B60A1
:1005F0007B685A1E7A605A1E9341DBB22BB1BB68EE
:100600005A1CBA6000221A70F2E7FFF779FF00F077
:1006100007F8C046BD4604B080BD80B500AFFEE718
:10062000F0B58BB000AF00237B628023C4F20403DB
:1006300001225A8040F60353C4F2040300221A70C8
:1006400040F60353C4F2040340221A7040F600132C
:10065000C4F204031A6840F60013C4F204034021F4
:100660008A431A6000F0D1F800F0B2F840F20003BB
:10067000C2F20003180000F04DFA62B640F21813FF
:10068000C2F20003180000F01DF940F2E83000F05B
:100690008FF841F21842C0F2000240F20003C2F2A9
:1006A00000031100180000F0AFFB40F21813C2F273
:1006B0000003180000F0F2F903003B623B6A002BD4
:1006C00000DAFF331B123B623B6ABB61DB17FB6145
:1006D000B869F9693860796002000B00D60E5901DB
:1006E000796179693143796153013B613A697B6989
:1006F00038687968121A8B41D60D5902F960F96889
:100700003143F9605302BB60BA68FB6838687968A6
:1007100012184B41960E9D0135439401A41A9D4138
:1007200002000B0012196B41BA61FB61B869F969EB
:100730004FF6FF72C0F27F02002300F045FC02007A
:100740000B00BA61FB61BA6940F20003C2F2000318
:100750001100180000F0B0FA41F22842C0F2000285
:1007600040F20003C2F200031100180000F04CFB3D
:1007700040F20003C2F20003180000F0B0FB0300D7
:100780005A1E9341DBB2002B00D17EE740F20003FA
:10079000C2F20003180000F07EFA03001A0040F2D3
:1007A0000003C2F200031100180000F031FA6CE7F8
:1007B00080B582B000AF78607B685A1E7A605A1E9E
:1007C0009341DBB203B1F7E7C046BD4602B080BD3E
:1007D00080B500AF4EF21003CEF2000347F6FF42A1
:1007E0005A604EF21003CEF2000364229A604EF279
:1007F0001003CEF2000307221A60C046BD4680BD3A
:1008000080B500AFC046BD4680BD80B500AF4EF29A
:10081000FE33C4F20103164A1A804EF22003C4F2DA
:10082000010300221A604EF23603C4F201031B7862
:10083000DAB24EF23603C4F2010301218A43D2B286
:100840001A704EF23C03C4F201031B78DBB21A00AB
:10085000012313405A425341DBB203B1F1E74EF298
:100860002603C4F2010300221A70C046BD4680BDB3
:1008700001A5FFFF80B582B000AF786039607B686A
:10088000012B12D13B684FF6FF7293420DD140F21B
:100890000003C2F20003180000F0C9FE40F2181372
:1008A000C2F20003180000F0CBFEC046BD4602B005
:1008B00080BD80B500AF4FF6FF710120FFF7DAFF72
:1008C000BD4680BD80B584B000AF786047F20803B4
:1008D000C4F204031A6847F20803C4F204036D4922
:1008E0000A401A604EF2FE33C4F201036A4A1A80CB
:1008F0004EF2D103C4F2010301221A704CF200033C
:10090000C4F209030022DA614CF20003C4F20903C5
:1009100000221A624CF20003C4F2090300225A605A
:100920004CF20003C4F2090340F206621A604EF270
:10093000D103C4F2010381221A704CF20003C4F205
:10094000090301225A6044F24023C0F20F03FB6006
:10095000FB685A1EFA605A1E9341DBB203B1F7E7F7
:100960004CF20003C4F209035A684CF20003C4F2CB
:10097000090302210A435A6044F24023C0F20F03E4
:10098000FB60FB685A1EFA605A1E9341DBB203B14A
:10099000F7E740F60353C4F2040300221A7040F64E
:1009A0000353C4F2040340221A702023C4F2040348
:1009B0005B889AB22023C4F2040303218A4392B2D3
:1009C0005A8040F64003C4F2040348F200021A6061
:1009D00040F64403C4F2040348F200021A604CF2E9
:1009E0000003C4F2090300229A604CF20003C4F22F
:1009F000090399684CF20003C4F209038022C4F68B
:100A000000720A439A604CF20003C4F20903022206
:100A10001A644CF20003C4F2090303221A644CF274
:100A20000003C4F2090300221A634CF20003C4F26B
:100A30000903DA694CF20003C4F2090301210A43F5
:100A4000DA614CF20003C4F2090301225A634CF24A
:100A50000003C4F20903DB6B012213405A425341E5
:100A6000DBB203B1F3E74CF20003C4F20903DB6B22
:100A7000012213405A1E9341DBB203B1F3E746F261
:100A80000833C4F2000343221A60C046BD4604B0D6
:100A900080BDC046FFFFFDFF01A5FFFF80B582B00E
:100AA00000AF78604CF20003C4F2090341F6016222
:100AB000DA614CF20003C4F2090301221A6246F221
:100AC0000833C4F200031A6880235B0213405A42C1
:100AD0005341DBB203B1F2E746F20833C4F200033C
:100AE0001A6846F20833C4F2000309490A401A6042
:100AF0004CF20003C4F209030022DA614CF2000355
:100B0000C4F209039B6A1B021800BD4602B080BDF7
:100B1000FFFFFEFF80B584B000AF786042F28053E3
:100B2000FB6040F21C13C2F200037A681A6072B6CE
:100B30007B6894220021995000237A6890215350B9
:100B40007A688C2153507B6800229A6000227B686F
:100B50005A607B681A6040F60353C4F20403002213
:100B60001A7040F60353C4F2040340221A7040F690
:100B70002013C4F204030022C0F201421A6040F6BE
:100B80001C13C4F204030022C0F201421A6047F2AF
:100B90000003C4F204031A6847F20003C4F204031A
:100BA000520052081A600023C4F2070300229A7010
:100BB0000023C4F2070300221A700023C4F20703C3
:100BC00010229A710023C4F2070367225A7000238F
:100BD000C4F2070370229A7046F20033C4F2000395
:100BE00071221A6046F20433C4F2000372221A60C2
:100BF0004EF20013CEF200031A684EF20013CEF24A
:100C0000000303210A431A60C046BD4604B080BDFC
:100C100080B584B000AF78600A00FB1C1A7048F2FF
:100C2000A063C0F20103FB607B689B687F2B05D942
:100C3000FB685A1EFA600BB1012300E0002303B1E8
:100C4000F2E70023C4F207039B78DBB25BB2DB431D
:100C5000DBB2DB09DBB29BB10023C4F207039B7854
:100C6000DAB20023C4F20703802149420A43D2B218
:100C70009A700023C4F20703FA1C1278DA7006E0B7
:100C80007968FB1C1A787B68180000F0D4F8C0461D
:100C9000BD4604B080BD80B582B000AF78607B688F
:100CA0008C331A007B681100180000F0EDF8030087
:100CB0001800BD4602B080BD80B586B000AF786038
:100CC00039600A237B6108217B180022DA723B68B5
:100CD000002B06DA7B182D221A703B685B423B60C2
:100CE00003E00823FB182B221A707B69002B1ADD06
:100CF0003A680A2392FBF3F10B009B005B185B0040
:100D0000D31ADBB23033D9B20823FA187B69D3186F
:100D10000A1C1A703B680A2293FBF2F33B607B6962
:100D2000013B7B61E1E70823FA187B68110018009A
:100D300000F06AF8C046BD4606B080BD80B582B0FE
:100D400000AF78600A00FB1C1A70FB1C1B78092B93
:100D500004D8FB1C1B783033DBB20DE0FB1C1B7886
:100D6000092B08D9FB1C1B780F2B04D8FB1C1B7804
:100D70003733DBB200E023231800BD4602B080BD4C
:100D800080B586B000AF7860396007237B610823A7
:100D9000FB1800221A727B69002B18DB3B68DBB260
:100DA0000F221340DAB27B6811001800FFF7C6FF6C
:100DB000030019000823FA187B69D3180A1C1A705B
:100DC0003B681B093B607B69013B7B61E3E70823D0
:100DD000FA187B681100180000F016F8C046BD46EE
:100DE00006B080BD80B582B000AF78600A00FB1C01
:100DF0001A70FB1C1A787B6811001800FFF708FFB7
:100E0000C046BD4602B080BD80B582B000AF7860FC
:100E100039603B681B7853B13B681A787B681100D6
:100E20001800FFF7F5FE3B6801333B60F1E7C04671
:100E3000BD4602B080BD80B584B000AFF860B96037
:100E4000FB1D1A70BB689A687F21002391425B41A9
:100E5000DBB2ABB172B6BB689B685A1CBB689A60C8
:100E6000FB1D1978BB681B68BA68D3180A1C1A7373
:100E7000BB681B6801337F221A40BB681A6062B6E8
:100E8000C046BD4604B080BD80B584B000AF786078
:100E900039600F217B1800221A703B689B685A1E2C
:100EA0009341DBB2A3B172B63B689B685A1E3B68A4
:100EB0009A603B685A687B1839688A18127B1A70E6
:100EC0003B685B6801337F221A403B685A6062B618
:100ED0000F23FB181B781800BD4604B080BD80B5F9
:100EE00082B000AF78607B6894229B581800BD46A2
:100EF00002B080BD80B582B000AF46F20033C4F2CC
:100F000000031A6846F20033C4F200030E490A4097
:100F10001A600023C4F20703FA1D5B79137040F2D4
:100F20001C13C2F20003186840F21C13C2F2000343
:100F30001B688C331900FB1D1B781A00FFF77BFF21
:100F4000C046BD4602B080BDFFFFFEFFB0B500AF9A
:100F500046F20433C4F200031A6846F20433C4F2C2
:100F6000000318490A401A6040F21C13C2F2000341
:100F70001B689B685A1E9341DBB29BB140F21C1365
:100F8000C2F200031A6840F21C13C2F200031B688D
:100F90000024C4F2070419001000FFF775FF0300D6
:100FA000E3700BE00023C4F207039B78DAB200235E
:100FB000C4F207037F210A40D2B29A70C046BD46F0
:100FC000B0BDC046FFFFFEFF002B15D1002A13D194
:100FD000002906DB01DC002806D00020C0434108C0
:100FE00002E080210906002007B4024801A1401850
:100FF000029003BD5900000003B4684601B5029891
:1010000000F006F8019B9E4602B00CBC7047C0463B
:10101000F8B5CE46474680B59146984604000D0087
:1010200000F044F807000E0002000B00484641465D
:1010300000F00EF8241A8D41089B380031001C6026
:101040005D60C0BCB946B046F8BDC0467047C046FA
:10105000F0B54FF6FF75CE46474699462B00154032
:101060000E0029000340140C80B50700000C594302
:101070004543634360435B190C0CE4188C46A5425E
:1010800003D980235B0298464044230C61461B1819
:1010900020044FF6FF740C40494679437243C91847
:1010A00000198918C0BCB946B046F0BDF0B54E462F
:1010B0004546DE465746E0B583B0009001911000EA
:1010C0001900009B019C40F20008261E0ADA250048
:1010D0001C0000236242AB411E00009201930123D9
:1010E0005B4298460F1E08DA4346DB430C009846E5
:1010F000030000215842A1410F000500B146009CA9
:10110000002F46D1B04268D900F066F950B12023D3
:1011100021001B1A3200D94082400B001343854046
:10112000994684402B0CB9FBF3F218004FF6FF7779
:1011300011009C464B4650432F407943181A000437
:10114000230C0343994209D95B19501E9D4200D9D3
:101150002AE1994200D827E1023A5B19591AB1FBFA
:10116000FCF663464FF6FF7073437743C91A0904D0
:10117000044021438F4207D96918731E8D4202D85B
:10118000023E8F4200D81E00130440F2000C33438D
:1011900004E0B74212D940F2000C00231800434685
:1011A000614623B10300644600215842A14103B0C7
:1011B000F0BCBB46B246A946A046F0BD380000F0E0
:1011C0000BF984460300002800D08AE00133B742BF
:1011D000E4D30300AC424341E0E700B9FFDE00F096
:1011E000FBF890BB4FF6FF7040F2010C731B290C0B
:1011F0002840B3FBF1F20E000700564357439B1BF8
:101200001B04260C1E43B74207D97619531EB5425C
:1012100002D8B74200D9DCE01A00F61BB6FBF1F7A2
:101220004FF6FF7379437843761A36041C40264301
:10123000B04207D9AE197B1EB54202D8023FB04278
:1012400000D81F0013043B43A8E720213300091AEC
:1012500085402200CB40CA40290CB3FBF1F7864001
:1012600084404FF6FF7016433A00284042439446AC
:101270000A007A439B1A1B04320CB2461A43944567
:1012800009D952197B1E954200D9A0E0944500D897
:101290009DE0023F52196346D21AB2FBF1F94E4665
:1012A0004FF6FF7C4E43921B12049346664652460D
:1012B0004B4616405A464343324393420BD94E465F
:1012C0005219013E95427ED893427CD9022676423D
:1012D000B4465219E144D31A4A463F043A4394466D
:1012E00087E720222B00121AD34087401F43330088
:1012F0002100D340D1403A0C86409146B3FBF2F234
:1013000085404FF6FF700E431100384041438A4636
:1013100049465143591A0904330CB3460B439A45C5
:1013200007D9DB19511E9F424FD89A454DD9023A31
:10133000DB195146591AB1FBF9F34E464FF6FF79C6
:101340005E43891B09048A464E4659460E40514663
:1013500058433143884207D9C9195E1E8F4230D89D
:1013600088422ED9023BC919120413434FF6FF726B
:1013700017002A4016001F402D0C091A180C424372
:101380007E4368437D43370CAD187D19AA4203D9CB
:1013900080225202914648442A0C101881420ED3F2
:1013A00004D040F2000CF9E60200D7E66246944011
:1013B0004FF6FF722D041640AD19AC42F1D2013B3D
:1013C000EFE73300D0E7B14685E70A00B1E71F0039
:1013D00061E7023A761920E71C2101231B04984299
:1013E00001D3000C10391B0A984201D3000A0839B6
:1013F0001B09984201D30009043902A2105C40186D
:101400007047C04604030202010101010000000010
:1014100000000000B30800005468652076616C7518
:1014200065203D20000000000D0A004743433A209C
:1014300028474E552041726D20456D626564646594
:101440006420546F6F6C636861696E2031302D3297
:101450003032302D71342D6D616A6F722920313038
:101460002E322E312032303230313130332028725A
:10147000656C656173652900412F0000006165613D
:10148000626900012500000005382D4D2E424153B0
:1014900045000610074D0903120414011501170336
:1014A000180119011A011E06412F00000061656133
:1014B000626900012500000005382D4D2E42415380
:1014C00045000610074D0903120414011501170306
:1014D000180119011A011E06412F00000061656103
:1014E000626900012500000005382D4D2E42415350
:1014F00045000610074D09031204140115011703D6
:10150000180119011A011E06412F000000616561D2
:10151000626900012500000005382D4D2E4241531F
:1015200045000610074D09031204140115011703A5
:10153000180119011A011E064121000000616561B0
:10154000626900011700000005382D4D2E424153FD
:1015500045000610074D09031901412F00000061E5
:101560006561626900012500000005382D4D2E429D
:10157000415345000610074D0903120414011501DB
:101580001703180119011A011E0241210000006110
:101590006561626900011700000005382D4D2E427B
:1015A000415345000610074D09031901412F000062
:1015B00000616561626900012500000005382D4D5C
:1015C0002E42415345000610074D09031204140131
:1015D00015011703180119011A011E02412F0000FD
:1015E00000616561626900012500000005382D4D2C
:1015F0002E42415345000610074D09031204140101
:1016000015011703180119011A011E0241210000DA
:1016100000616561626900011700000005382D4D09
:0E1620002E42415345000610074D09031901E3
:10162E0080B582B000AF78607B681800BD4602B00E
:02163E0080BD6D
:1016400080B582B000AF78607B681800BD4602B0FC
:0216500080BD5B
:00000001FF
