:1000000000800020830500001B0600001B06000086
:100010001B0600001B0600001B0600001B0600005C
:100020001B0600001B0600001B0600001B0600004C
:100030001B0600001B0600001B060000CF06000088
:100040001B0600001B0600001B0600001B0600002C
:100050001B0600001B0600001B0600001B0600001C
:100060001B0600001B0600001B0600001B0600000C
:100070001B0600001B0600001B0600001B060000FC
:100080001B0600001B0600001B0600001B060000EC
:100090001B0600001B0600001B0600001B060000DC
:1000A0001B0600001B0600001B0600001B060000CC
:1000B0001B0600001B0600001B0600001B060000BC
:1005000080B582B000AF40F26C72C0F2000240F2DF
:100510006C73C0F20003D31A9B103B6000237B6016
:100520007A683B689A420BD240F26C73C0F20003C7
:100530007A689200D35898477B6801337B60EFE775
:1005400040F26C72C0F2000240F26C73C0F2000321
:10055000D31A9B103B6000237B607A683B689A4209
:100560000BD240F26C73C0F200037A689200D35849
:1005700098477B6801337B60EFE7C046BD4602B019
:1005800080BD80B584B000AF40F61903C0F200030F
:10059000FB6040F20003C2F20003BB6040F20002C5
:1005A000C2F2000240F20003C2F20003D31A7B60E1
:1005B0007B685A1E7A605A1E9341DBB24BB1FB68CE
:1005C0005A1CFA601978BB685A1CBA600A1C1A7067
:1005D000EEE740F20003C2F20003BB6040F200020B
:1005E000C2F2000240F20003C2F20003D31A7B60A1
:1005F0007B685A1E7A605A1E9341DBB22BB1BB68EE
:100600005A1CBA6000221A70F2E7FFF779FF00F077
:1006100007F8C046BD4604B080BD80B500AFFEE718
:1006200080B582B000AF00237B608023C4F2040356
:1006300001225A8040F60353C4F2040300221A70C8
:1006400040F60353C4F2040340221A7040F600132C
:10065000C4F204031A6840F60013C4F204034021F4
:100660008A431A6048F2A063C0F20103180000F048
:1006700006F800F03DF800F012F862B6FEE780B52B
:1006800082B000AF78607B685A1E7A605A1E934130
:10069000DBB203B1F7E7C046BD4602B080BD80B50E
:1006A00000AF4EF21003CEF2000347F6FF425A604D
:1006B0004EF21003CEF2000364229A604EF2100351
:1006C000CEF2000307221A60C046BD4680BD80B549
:1006D00000AF8023C4F204031B889AB28023C4F2C3
:1006E000040301214A4092B21A80C046BD4680BD33
:1006F00080B500AF4EF2FE33C4F20103194A1A80EE
:100700004EF22003C4F201031A684EF22003C4F231
:10071000010315490A401A604EF23603C4F2010380
:100720001B78DAB24EF23603C4F2010301218A4388
:10073000D2B21A704EF23C03C4F201031B78DBB252
:100740001A00012313405A425341DBB203B1F1E7CF
:100750004EF22603C4F2010300221A70C046BD46C1
:1007600080BDC04601A5FFFFFFFFFFFB4743433AA3
:100770002028474E552041726D20456D62656464A6
:10078000656420546F6F6C636861696E2031302D31
:10079000323032302D71342D6D616A6F7229203103
:1007A000302E322E31203230323031313033202869
:1007B00072656C656173652900412F0000006165F9
:1007C00061626900012500000005382D4D2E42416F
:1007D0005345000610074D090312041401150117B3
:1007E00003180119011A011E06412F00000061655E
:1007F00061626900012500000005382D4D2E42413F
:100800005345000610074D09031204140115011782
:0908100003180119011A011E066A
:00000001FF
